:020000022000DC
:1070000000000420859C0600BD9C0600C57F06008C
:10701000C19C0600D17F0600D77F0600000000005B
:10702000000000000000000000000000852D0300AB
:10703000C99C0600000000001F2E03002F2E030035
:10704000B5DA060041380600CF9C0600CF9C06004A
:10705000CF9C0600CF9C0600CF9C0600CF9C06006C
:10706000CF9C0600CF9C0600CF9C0600CF9C06005C
:10707000CF9C060049DC0600CF9C060005450600B3
:10708000CF9C0600CF9C0600CF9C0600CF9C06003C
:10709000CF9C0600CF9C0600CF9C0600CF9C06002C
:1070A000CF9C0600CF9C0600CF9C0600CF9C06001C
:1070B000CF9C0600CF9C06000000000000000000EE
:1070C000CF9C0600CF9C0600CF9C0600CF9C0600FC
:1070D000CF9C0600CF9C0600CF9C0600CF9C0600EC
:1070E000CF9C0600CF9C0600CF9C0600000000004D
:1070F00000000000CF9C060000000000CF9C0600AE
:1071000010B5054C237833B9044B13B10448AFF3E1
:1071100000800123237010BD386F002000000000A4
:107120003494070008B5034B1BB103490348AFF380
:10713000008008BD000000003C6F00203494070070
:10714000154B002B08BF134B9D46A3F5803A002139
:107150008B460F461348144A121A49F0D9F90F4BBF
:10716000002B00D098470E4B002B00D098470020F2
:10717000002104000D000D48002802D00C4841F009
:10718000C1FC48F0C3FC200029000DF073FE41F063
:10719000B6FC00BF00000800000004200000000052
:1071A000D14D0300386F0020987A0120058B06002E
:1071B00000000000024B012283F88C23704700BFBF
:1071C000B47600202DE9F0410A4F80460E46002497
:1071D000B4420CD2351BF42D28BFF42508EB040172
:1071E00001232A46384600F02BFD2C44F0E7BDE889
:1071F000F08100BF7C6F0020F7B5154D154C164986
:10720000164E284600F048FF2846154D15492246DF
:10721000002741F072FC142300970C2212492846E3
:1072200000F0E0FC2846114D2246314641F065FC55
:107230000097F42310220E49284600F0D3FC224682
:107240003146284603B0BDE8F04041F056BC00BFCF
:10725000706F002000600020403D0700597B020055
:10726000646F00202D800200653D07007C6F0020C8
:107270008A3D07002DE9F0472848DFF8AC80DFF8A9
:10728000AC90DFF8ACA086B000F0D0FC01AF0246B5
:1072900006463946214800F007FD0024B44239DA99
:1072A00006AD395D8DF80310404609F033FF15F83F
:1072B000151D484609F02EFF01231A46294650465F
:1072C00000F0BEFC9DF80330622B1BD10121084663
:1072D0000BF0BCFC002101200BF0FAFC04200BF0A9
:1072E0005BFC022101200BF0B1FC0D4808F03EF8D8
:1072F0000C4B01221A709DF80310094808F05CFD40
:107300000134CBE7732BF6D1054807F0F1FF054BAD
:107310000022EFE706B0BDE8F08700BF646F0020F1
:10732000B4760020636F0020F0800020B87F00203A
:107330007C6F002038B5012100200BF087FC012173
:1073400000200BF0C5FC022101200BF07FFC012185
:1073500002200BF07BFC012102200BF0B9FC4FF462
:10736000E1312D482D4D09F057FEC8200BF012FCDD
:107370004FF4E1312A4809F04FFE4FF4E13127483C
:1073800007F00AF8274800F0A7F932200BF002FCBA
:10739000224808F09EFC0524214601342846E4B228
:1073A00008F080FA092CF7D1012003221E4909F0C8
:1073B000ABFD1E4B1C68236820469B68984720B98C
:1073C0001B4915480BF0FAF9FEE723681949DB6BF6
:1073D0002046984723681849DB6A20469847174992
:1073E000154800F077FE1649134800F073FE236835
:1073F00011491B6D204698470321124A0F4800F09F
:1074000032FC236820465B6D98470F490248BDE86F
:1074100038400BF0D3B900BFF0800020B4760020D4
:10742000B87F0020886F0020B5710200EC3E070095
:10743000AF3D0700BF3D0700706F0020646F002064
:107440007C6F002075720200D03D07002DE9F341EA
:10745000634B644D186803681B6998472B78002BB1
:107460003BD001200BF064FC18B95F4B012283F87C
:107470008C232B788BB35C4C94F88C336BB3002645
:10748000204684F88C6309F02FF85848A023037035
:1074900094F82B314370637DC370A37D0371E37D4A
:1074A000437101238371237EC371637E0372A37EC4
:1074B000437202238372E37EC372237F0373637F6D
:1074C000437394F89033867063F03F030F21837306
:1074D000FFF778FE204609F0B7FA454FDFF8148130
:1074E000414E384609F0CCFEB8BB424FDFF8008170
:1074F0003D4E384609F0C4FE00286BD0384609F0EE
:1075000031FFC4B22146404609F004FE02A80D2313
:107510008DF8053000F8044D0A2303218DF806305C
:10752000FFF750FE622C4ED1012108460BF08EFB76
:10753000002101200BF0CCFB04200BF02DFB0221DD
:1075400001200BF083FB304607F010FF01232B7066
:107550002146304608F030FCCBE7384609F002FF00
:10756000C4B22146404609F0D5FD02A80D238DF88E
:10757000053000F8044D0A2303218DF80630FFF78B
:1075800021FE622C18D1012108460BF05FFB00217F
:1075900001200BF09DFB04200BF0FEFA02210120DC
:1075A0000BF054FB304607F0E1FE01232B7021461F
:1075B000304608F001FC94E7732CF8D1304607F010
:1075C00097FE0023F2E7732CC2D1304607F090FEFD
:1075D0000023BCE7044806F095FD02B0BDE8F08149
:1075E000EC3E0700636F0020B4760020546F00204B
:1075F000F0800020B87F002010B586B0C3688DF8F9
:107600000F101868012203680092DC680DF10F0169
:107610000DF11703A0479DF8170006B010BDF8B58F
:10762000427A036804460E46CFB29B680D0A62B9DF
:1076300039469847236860F307069B682946204629
:10764000984760F30F26B0B2F8BD294698472368E3
:1076500060F30F269B6839462046984760F307067B
:10766000F1E713B5C368186803680092DC680B463D
:10767000A04702B010BD70477047C368186810B1CA
:1076800003685B6818477047704773B543686D4679
:107690009942044685E806000E4604D1BDF8042050
:1076A00003899A420FD0E3689DF8042018680821E6
:1076B0003DF0BDFDE368314618683DF0D5FD00980A
:1076C000AB886060238102B070BD10B51421044600
:1076D00041F03AFC204610BD73B5C568044625B993
:1076E000042041F019FCE0600560E3681B6883B981
:1076F000542041F011FC4FF0FF3694F9123094F908
:10770000102094F91110009605463DF04BFDE368FA
:107710001D6002B070BD000010B5044609F015FBF5
:1077200084423BBF2401024B4FF0FF30185710BD7D
:107730001460002038B50A20FFF7EEFF05460B2045
:10774000FFF7EAFF04460920FFF7E6FF094B0A4A64
:107750001A60012100225A601A725972DA60987414
:107760001D745C741846054A0549BDE8384041F06F
:10777000C4B900BF886F0020F03D07000060002002
:1077800089760200704710B55C21044641F0DCFBAD
:10779000204610BD0B4A02601F210022C0E90921CA
:1077A000C0E90B2280F8342080F83520C0E90E2291
:1077B0000264A0F8442080F84620C0E91222C0E903
:1077C000152270472C3E070000231F22C0E90A2320
:1077D000036380F83530C0E90E33036480F8463027
:1077E000C0E91233C0E9153370478B6A8362CB6AF4
:1077F000C3620B6B036391F8343080F8343091F836
:10780000353080F835308B6B8363CB6BC3630B6C87
:107810000364B1F84430A0F8443091F8463080F861
:1078200046308B6C8364CB6CC364B1F85030A0F8E5
:1078300050304B6D43658B6D8365704708B5FFF71E
:10784000D4FF08BD70B5054686B068460E4603F005
:10785000D3FCEC6C6846002CCCBF0234002403F04F
:1078600009FD0230241AA86A241808D4AC62AE6458
:10787000684603F0FFFCE864012006B070BD0020FC
:10788000FBE710B5036C23B190F84640023304B116
:107890000233941C1B1B846A1B1958BFC0E90F12CA
:1078A0004FF000045BBF80F8464083622046012011
:1078B00010BD30B5046C24B190F84650023405B1C7
:1078C00002341D1D641B856A64195FBFC0E90F2364
:1078D0000123A0F8441080F8463056BF846200208F
:1078E000184630BD30B5846D002CCCBF0434002464
:1078F0001D1D641B856A64195DBFC0E91523A0F8CE
:1079000050108462002058BF012030BD70B505467C
:10791000806B0E4688B1047814B149F031FA841CAA
:10792000304649F02DFA0230241AA86A24185DBFA7
:10793000AC62AE630120002070BD0446F0E790F811
:107940003530826A002B0CBF6FF0020300239B18B6
:107950005FBF8362012380F8353080F8341054BF54
:1079600018460020704704307047406A704790F80E
:107970003500704738B50446406AC0F11F03934292
:10798000154608DB0430204448F0C4FC626A2A44EF
:107990006262012038BD0020FCE770B50446406AF1
:1079A0000E461D4611460233C0F11F029A420FDBFC
:1079B00023186A1C1A71821C0630626220445E71B0
:1079C0002A4648F0A7FC636A2B446362012070BD1D
:1079D0000020FCE770B586B00546684603F00CFC55
:1079E000684603F047FC022804466846CCBF0626DA
:1079F000022603F03DFC2346024631462846FFF7A7
:107A0000CCFF06B070BD13460A46FF21FFF7C5BF85
:107A100070B588B008AC064624F8201D10461D46F7
:107A20001A4601460DF1020048F074FCAB1C2246D8
:107A3000FF213046FFF7B1FF08B070BD70B588B0C8
:107A400008AC064624F8201D10461D461A4601467D
:107A50000DF1020048F05EFCAB1C224616213046B8
:107A6000FFF79BFF08B070BD07B502AA012302F81B
:107A7000011D1946FFF791FF03B05DF804FB70B5D7
:107A8000054610460E46144649F07AF9224603464A
:107A900031462846BDE87040FFF77FBF70B5054608
:107AA00008460C4649F06CF91D2807D9224628469D
:107AB0001D230821BDE87040FFF76FBF224628460E
:107AC0000921BDE87040FFF7DABF38B5C16A00236D
:107AD0000546436229B1026B1AB1BDE83840FFF791
:107AE00049BF95F835307BB395F834102846FFF739
:107AF000BBFF0446A96C21B12846FFF76BFF044089
:107B0000E4B2E96B61B12B6C53B195F84620EAB150
:107B10000A462846B5F84410FFF77AFF0440E4B25D
:107B20006A6D42B1AB6D33B1B5F850102846FFF71E
:107B300085FF0440E4B2A96B21B12846FFF7AEFFF0
:107B40000440E4B2204638BD0124D3E71A46284653
:107B5000FFF759FFE2E700000C4B10B50446036045
:107B6000406838B100F0E4FA20B9606810B10368E9
:107B70005B689847A06838B101F065F820B9A06843
:107B800010B103685B689847204610BD3C3E070073
:107B900010B50446FFF7E0FF20460C2141F0D4F970
:107BA000204610BD064B10B5C0E900310023044645
:107BB000836011B1084600F0B6FA204610BD00BF40
:107BC0003C3E0700064B10B5036000230446C0E9A5
:107BD000013111B1084601F031F8204610BD00BF57
:107BE0003C3E07002DE9F3410446542098460E46DA
:107BF000174641F091F99DF8203000930546434621
:107C00003A46314600F06EFB29462046FFF7CAFF90
:107C1000204602B0BDE8F0810346406808B100F09C
:107C20008FBA986808B101F037B8704703464068CA
:107C300008B100F08FBA986808B101F031B8704708
:107C400010B4446824B120465DF8044B00F084BAB7
:107C5000806818B15DF8044B01F024B85DF8044B5E
:107C600070474068704770B5054640680C46164638
:107C700010B1C9B200F0DDFAA86828B13246E1B20D
:107C8000BDE8704001F09AB870BD08B5836823B1B3
:107C9000FFF7C2FFC0F3400008BD1846FCE780684C
:107CA00008B101F05BB87047F8B5054640680E466C
:107CB000174618B300F04EFAB842A8BF384604463B
:107CC000686800F045FA22460146304648F022FB3B
:107CD000A86888B101F03AF890B9A86800F0E0FF10
:107CE00087423C46A8BF0446A86800F0D7FF22465A
:107CF0000146304648F00EFB2046F8BD0446E7E753
:107D00002846FFF7C2FF0028E7D02846FFF7C7FF45
:107D10000028E2D10446EFE770470000024B1868E4
:107D200003681B69184700BFDC410700024B186855
:107D300003685B69184700BFDC41070010B4054BBE
:107D400001791B681A685469421D184623465DF87C
:107D5000044B18473040070010B50B4B0446186819
:107D600021790368621D9B6A98474FF6FF7398421A
:107D7000014606D0054B18680268BDE81040926ABB
:107D8000104794F94B0010BD30400700DC4107005C
:107D900010B54C21044641F0D7F8204610BD000034
:107DA00010B58AB0044648794B7A8A7A039088796C
:107DB0000290C8790190097A009105A8044948F019
:107DC000C9FD05A920460AF08EFD20460AB010BD67
:107DD000443E070007B5002306226946053000939C
:107DE000ADF8043048F064FA003018BF012003B049
:107DF0005DF804FB08B502790B799A4208D1062296
:107E00000531053048F054FAB0FA80F0400908BD59
:107E10000020FCE710B50A4B0446186803681B698C
:107E20009847236820461B6A984740B1054B217943
:107E300018680368621D5B6BBDE81040184710BDF1
:107E4000DC4107003040070008B502790B799A42FF
:107E500008D106220531053048F02AFA003018BF53
:107E6000012008BD0120FCE7064A02607F210022B4
:107E7000C272027380F84B10C0F80520A0F80920E8
:107E8000704700BF6C3E070010B501710021C17240
:107E90000173064C04607F2180F84B101168C0F814
:107EA00005109288A0F8092010BD00BF6C3E0700A5
:107EB0002DE9F0410F46144906460AF014FD3A7BBD
:107EC00000218A421CDD7B1801F10208597B9B7B53
:107ED000083B012B01F1FF340FD8214630460AF050
:107EE000D6FC0025AC420BDD08EB05033B443046D5
:107EF000597B0AF05BFD0135F4E704EB0801E0E78C
:107F00003046BDE8F08100BF4C8707002DE9F04FF7
:107F100085B088462249019283460AF0E4FC002499
:107F2000A14698F80C30A34235D908EB0403671C2E
:107F3000FFB25E7B08EB07035B7B9A1E012A25D903
:107F4000063B012B24D810250234E4B205FB05F3CF
:107F50000D34009344444FF0000A731EEAB25345B7
:107F600016DD019989450BD11146204603930292F3
:107F700003F082F9014658460AF0EDFCDDE90223E0
:107F8000009909F10109AA440C44E8E70225DBE75E
:107F90003E44F4B2C5E7584605B0BDE8F08F00BFD7
:107FA0004C87070010B500220446FFF7AFFF2046BC
:107FB00010BD08B5134602798A4208D10622194637
:107FC000053048F075F9B0FA80F0400908BD00208E
:107FD000FCE710B50446012000FA01F1E1722273BA
:107FE000194604F10D0048F095F99DF9083084F820
:107FF0004B3010BD70B50D461146C27A42F01002EA
:108000000446C272007B0D302A4620441E4648F0CA
:1080100081F9237B84F84B601D44257370BDC37ABE
:1080200013F0180F14BF0120002070470C4B10B53F
:1080300004460360406838B100F07AF820B96068FF
:1080400010B103685B689847A06838B100F0FBFD89
:1080500020B9A06810B103685B689847204610BD3E
:10806000A03E070010B50446FFF7E0FF20460C21B4
:1080700040F06AFF204610BD064B10B5C0E9003144
:1080800000230446836011B1084600F04CF82046F6
:1080900010BD00BFA03E070070B5044630200E465C
:1080A00040F03AFF3146054600F002FD29462046E1
:1080B000FFF7E2FF204670BD0346406808B100F0BC
:1080C00029B8986808B100F0B7BD0148704700BFF3
:1080D0004C870700406808B100F028BD7047406831
:1080E000704770470020704710B52021044640F0CB
:1080F0002BFF204610BD000010B5054B044640F88C
:10810000043B03F079F80023E361204610BD00BF73
:10811000B03E0700043003F0A9B8043003F0A8B85B
:10812000043003F0A7B8C3690133C3611846704730
:10813000C369013BC3611846704742F603007047AC
:1081400090F82000704790F821007047406A70470F
:10815000806A7047808D7047436A9A422DE9F041EA
:10816000A8BF1A460446828592B2806A0F4648F03C
:10817000D1F894F82E300BB1636AA38594F82030BF
:1081800098060FD5A28E91070CD51F4B218E18682B
:1081900003685D6D0131A38DA26AAC4689B2BDE86A
:1081A000F0416047DA0609D5A38EDB0706D5164BEA
:1081B000218E1868036801311D6DECE794F83230A8
:1081C000F3B1124B1868036821465B6A9847104B5D
:1081D0001D682B6801461E6BA38D3A462846B047A2
:1081E000094B186803681B6B984748B9094B186816
:1081F00003689B68984718B12B6828465B6D9847C1
:10820000A08DBDE8F08100BF304007007C41070031
:10821000EC3E07003041070038B5054608460C46DD
:1082200048F0AEFD214602462846BDE83840FFF73B
:1082300093BF03299CBF00EB810042647047018615
:108240007047008E7047008E013080B27047806B9F
:108250007047836B994208D2C36B0022914202D0CF
:108260005B680132FAE71868704700207047000029
:1082700030B5114B03600B7903710B4601F14904D2
:1082800053F8052FC0F805209B88A0F80930CB7A59
:10829000C3720B7B037300F10D0201F10D0353F860
:1082A000045B42F8045BA342F9D11B88138091F967
:1082B0004B3080F84B3030BD6C3E070038B504467B
:1082C00008200D4640F028FE0023C0E900536368F3
:1082D0002BB960602368A0600133236038BDA368B8
:1082E0005860F7E770B5044615461E46FFF704FFD1
:1082F0001E4B2360B6F5007F4FEA152384F821302A
:108300003346A8BF4FF40073002163629DF810301C
:1083100084F82050A18584F82E30218684F832100C
:1083200084F83310A186C4E90E112164102204F1EF
:10833000440048F0EDF815F0300F11D02C2040F03B
:10834000EBFD0B490546022304F1340200F0D6F898
:108350002846FFF7E8FE294604F13800FFF7AEFF94
:10836000304647F089FCA062204670BDCC3E070035
:10837000BC3E070070B50446406800252368AB4248
:1083800006D94668082140F0DFFD01353046F5E7A3
:108390000023C4E90033A36070BD0000154B70B525
:1083A000044603600025A36B9D4212D2E36B0022BA
:1083B000954202D05B680132FAE71E683046FFF74B
:1083C000B7FE20B91EB1336830465B689847013567
:1083D000E9E704F138052846FFF7CCFFA06A08B1A9
:1083E00047F052FC2846FFF7C5FF2046FFF779FE0D
:1083F000204670BDCC3E070010B50446FFF7CEFF07
:108400002046542140F0A0FD204610BDF0B5C56CBB
:1084100097B0044617461E467DB103A8FFF728FF14
:1084200021466846FFF7BEFB694603A8A847684691
:10843000FFF792FB03A8FFF76FFCA16A1C9A39446F
:10844000304647F067FF17B0F0BD70B504460E46E2
:108450001146012280F8332096B01A46FFF77CFEC1
:10846000256D85B1314603A8FFF702FF2146684616
:10847000FFF798FB694603A8A8476846FFF76CFB1F
:1084800003A8FFF749FC16B070BD30B5838E02F02B
:108490000302934297B0044617D08286002A0CBF8D
:1084A00044224022024455687DB103A8FFF7E0FE54
:1084B00021466846FFF776FB694603A8A847684649
:1084C000FFF74AFB03A8FFF727FC17B030BD4FF4B6
:1084D0002450704710B5034B03600446FFF701FEBC
:1084E000204610BDE03E070010B50446FFF7F2FF3E
:1084F00020462C2140F028FD204610BD70B50446D2
:108500001D461646FFF7F8FD064B2360B5F5007FC4
:10851000A8BF4FF4007500232662656223852046BC
:1085200070BD00BFE03E0700406A7047006A7047B8
:1085300001857047024B186803681B69184700BF24
:10854000DC410700024B186803685B69184700BFED
:10855000DC41070010B5064B186803681B69984793
:10856000044B18680368BDE810401B6B184700BF38
:10857000DC4107003040070010B5064B186803685F
:108580001B699847044B18680368BDE81040DB6B13
:10859000184700BFDC41070030400700024B186855
:1085A00003689B6C184700BF304007000C307047D1
:1085B00068307047024B186803681B69184700BF92
:1085C0007C410700024B186803685B69184700BFCD
:1085D0007C410700024B186803689B69184700BF7D
:1085E0007C410700024B186803681B69184700BFED
:1085F00030410700024B186803685B69184700BFE9
:1086000030410700024B186803685B6A184700BFD7
:108610003041070010B5074B0446186803681B6912
:108620009847054B19680B682046DB6C9847204635
:1086300010BD00BFDC4107003040070010B5074BFC
:108640000446186803681B699847054B19680B684E
:1086500020469B6A9847204610BD00BFDC410700BA
:1086600030410700024B18680368DB6A184700BFF7
:1086700030410700024B186803689B69184700BF28
:10868000A8430700024B18680368DB69184700BF5E
:10869000A8430700024B186803681B6B184700BF0C
:1086A00030410700024B18680368DB68184700BFB9
:1086B00030400700024B186803681B6A184700BF68
:1086C000A8430700024B186803685B6A184700BF9D
:1086D000A8430700024B1B68C3F8F010704700BFA7
:1086E000DC410700024B1B68C3F8F810704700BF5D
:1086F000DC410700024B1B68C3F8F410704700BF51
:10870000DC410700024B1B68C3F8EC10704700BF48
:10871000DC410700024B1B68C3F8FC10704700BF28
:10872000DC410700024B1B68C3F80011704700BF13
:10873000DC410700024B18680368D3F89C301847E7
:10874000DC410700024B18680368D3F8A0301847D3
:10875000DC410700F0B52A4B1D682B6887B0044642
:108760009B6828469847064620B923682046DB6860
:1087700098470DE064200AF00DFA2B6828469B69A3
:108780009847064638B123682046DB68984700269C
:10879000304607B0F0BD05AA2B6801920DF1120218
:1087A0000092DF6904AA0DF10E030DF10D012846B8
:1087B000B8470028D9D12B684FF0FF32D96A284634
:1087C0006FF0404388470028CFD12B6840F2FF323A
:1087D000196B28460023884706460028D3D12B680A
:1087E0000DF10F025B6B0DF116012846984700282A
:1087F000BBD1044B186803689B6898470126C7E7FC
:10880000DC4107007C4107000A4B10B5044618689C
:108810000368DB689847084B18680368DB6898476B
:1088200004F10C00FEF7D0FF04F16800BDE8104031
:10883000FEF7CABF7C410700DC41070010B58CB0D1
:1088400000230593ADF81830104B044618680368F0
:1088500005A91B6A98479DF8141003919DF81510FF
:1088600002919DF8161001919DF817109DF818308F
:108870009DF81920009107A8054948F06BF807A951
:1088800020460AF030F820460CB010BDDC4107004D
:10889000443E07000C30FEF7D5BF70B503680446B0
:1088A00008469D6AFFF708FC2B4601462046BDE8B6
:1088B000704018470C30FFF715B80C30FEF7E1BFD9
:1088C0000C30FEF7F6BF6830FFF720B86830FEF7CF
:1088D000B5BF10B500F10C042046FEF7AFFF2046EF
:1088E000FFF745F828B920460621BDE81040FFF7FC
:1088F00026B810BD2DE9F74300F10C050446683495
:108900002846FFF7E2F82046FFF7DFF80E4B1E6817
:1089100033682846DF68FFF726F880462846FFF7C9
:1089200024F805462046FFF71EF881462046FFF74B
:108930001CF8C0B200904B46EAB241463046B847F8
:1089400003B0BDE8F08300BF304107007FB5094B9D
:108950001C682368164601A89D6909F0F2FF32469B
:1089600001A92046A847044601A809F071FF204646
:1089700004B070BD304107007FB5094B1C68236807
:10898000164601A8DD6909F0DCFF324601A9204640
:10899000A847044601A809F05BFF204604B070BD5B
:1089A000304107007FB5094B1C682368164601A8B3
:1089B0001D6A09F0C6FF324601A92046A8470446B1
:1089C00001A809F045FF204604B070BD3041070002
:1089D00002290BBF044B054B186818680BBF0368CE
:1089E00003685B6B9B6D1847304107003040070000
:1089F00038B50446084B44F80C3B05462046FEF7C4
:108A0000C9FE05F16800FEF7C5FE06212046FEF707
:108A100096FF284638BD00BFF83E070010B5054C4C
:108A20002046FFF7E5FF2046034A0449BDE8104011
:108A300040F063B89C6F002000600020418A020073
:108A400010B5064B044640F8683BFEF79BFE04F168
:108A50000C00FEF797FE204610BD00BFF83E070051
:108A600010B50446FFF7ECFF2046C42140F06CFA35
:108A7000204610BD10B50B4B19680B6894B001A8C7
:108A8000DB6C984701A8FFF7A5F948B101A8FFF7EB
:108A900063F9044601A8FFF73FF9204614B010BD62
:108AA0007F24F7E7304007004FF420507047000064
:108AB00010B50446FFF720FB044B23600023C4E9F4
:108AC0000833C4E90A33204610BD00BFC43F070085
:108AD000018442847047008C7047408C7047406A24
:108AE0007047436A994208D2836A0022914202D0B9
:108AF0005B680132FAE7186870470020704738B5A4
:108B0000044608460D46FFF70EFB082040F004FA25
:108B10000023C0E90053A36A2BB9A062636AE06234
:108B20000133636238BDE36A5860F7E710B5044665
:108B30000846FFF796F8014620B12046BDE81040F0
:108B4000FFF7DDBF10BD70B50446406800252368FF
:108B5000AB4206D94668082140F0F6F901353046A7
:108B6000F5E70023C4E90033A36070BD10B50446E7
:108B70002430FFF7E8FF0023236210BD134B70B5CC
:108B8000044603600025636A9D4212D2A36A002254
:108B9000954202D05B680132FAE71E683046FFF763
:108BA000C7FA20B91EB1336830465B689847013573
:108BB000E9E72046FFF7DAFF04F12400FFF7C3FFDF
:108BC0002046FFF78EFA204670BD00BFC43F070065
:108BD00010B50446FFF7D2FF2046302140F0B4F92B
:108BE000204610BD10B5044B044640F8043B09F084
:108BF0002FFE204610BD00BFD83F070010B5044629
:108C0000FFF7F0FF2046142140F09EF9204610BDEA
:108C100038B504462546074B45F8043B084611463F
:108C200002F02AFB0146284609F05DFE002323617D
:108C3000204638BDD83F07004068704703690133BC
:108C40000361184670470369013B0361184670478A
:108C500070B504461E46BDF81450FFF7D9FF0D4B02
:108C60002360BDF81030E382BDF8183025766383A9
:108C70002D0A00230122A6826576C4E9073384F811
:108C8000243084F82520C4E90A33C4E90C33204693
:108C900070BD00BFE83F0700007E7047C0697047A5
:108CA000006A70472DE9F0439846274B1E683368E9
:108CB00085B004460F469B6B818A304691469847A3
:108CC00018B9002005B0BDE8F0833368A18A5B6C59
:108CD00030469847033885B24D45A8BF4D462946D2
:108CE000E06947F075FCE0610028EAD0237E1A07AE
:108CF0001CD5B8F1000F19D003A833680190E8B271
:108D00000090D3F86080628BA18A3B463046C04712
:108D10000028D7D09DF80C30012BD2D02A463946F6
:108D2000E06947F0F7FA25620120CBE75B07C8D579
:108D30003368628BA18AE8B20090D3F86480304631
:108D40003B46C047EAE700BF304007000346012228
:108D500090F8250083F8252070470000F0B5154BEA
:108D6000818A1E683368C1B004469B6B30469847C1
:108D7000054648B13368628BDF6DA18A6B46304689
:108D8000B84720B900252562284641B0F0BD9DF8BE
:108D90000030012BF6D0411E2162E06947F018FC3B
:108DA000E0610028EED0226A0DF1010147F0B2FA2D
:108DB000EAE700BF30400700408B7047032908BF37
:108DC0004263704738B5044608460D46FFF736FF44
:108DD000082040F0A1F80023C0E90053E36A2BB952
:108DE000E062A36A20630133A36238BD236B58603D
:108DF000F7E770B50446406800252368AB4206D902
:108E00004668082140F0A0F801353046F5E7002318
:108E1000C4E90033A36070BD03688B4208D943687E
:108E200000228A4202D05B680132FAE71868704774
:108E300000207047F8B50546134B45F8283B04461B
:108E40000026A36A9E420ED231462846FFF7E4FF71
:108E50000746FFF7F8FE20B91FB13B6838465B684C
:108E600098470136EDE72846FFF7C3FFE06918B1E0
:108E700046F00AFF0023E3612846FFF7BAFF2046C9
:108E8000FFF7B0FE2046F8BDE83F070010B50446E6
:108E9000FFF7D0FF2046382140F056F8204610BD9D
:108EA00070B50446036296B00D46C0691946164671
:108EB00047F08EFBE06110B9206216B070BD01234F
:108EC00084F824300023314684F82530226A47F0A4
:108ED00021FA666B002EF0D0194B03932B798DF895
:108EE00010302B4605F1490153F8052FCDF811201C
:108EF0009B88ADF81530EB7A8DF817302B7B8DF809
:108F000018300DF1190205F10D0353F8040B42F866
:108F1000040B8B42F9D11B88138095F84B308DF8E8
:108F2000573021466846FEF74DFE694603A8B04714
:108F30006846FEF711FE03A8FEF7EEFEBDE700BF90
:108F40006C3E0700074B10B504460360806918B1FA
:108F500046F09AFE0023A3612046FFF743FE204619
:108F600010BD00BFF83F070010B50446FFF7EAFF49
:108F7000204620213FF0E8FF204610BD38B50446CA
:108F80001D46FFF745FE054B2360BDF81030E38218
:108F90000023A582C4E90633204638BDF83F070008
:108FA000034A02600022C0E90122C260704700BF8C
:108FB0000840070038B5044608460D46FFF73EFE58
:108FC00008203FF0A9FF0023C0E90053A3682BB994
:108FD000A0606368E0600133636038BDE368586097
:108FE000F7E7406870474368994208D283680022D7
:108FF000914202D05B680132FAE71868704700209E
:10900000704770B50446406800252368AB4206D916
:10901000466808213FF098FF01353046F5E7002308
:10902000C4E90033A36070BD70B5064600247368C0
:109030009C4212D2B3680022944202D05B68013293
:10904000FAE71D682846FFF7FEFD20B91DB12B6821
:1090500028465B6898470134E9E7301DFFF7D1FFE8
:1090600070BD000038B50446054B44F8043B054686
:10907000FFF7DAFF2046FFF7C4FF284638BD00BFE0
:109080000840070010B50446FFF7ECFF204610210A
:109090003FF05AFF204610BD38B504461D46FFF785
:1090A000B7FD084B2360BDF81030E382A582064966
:1090B00004F1180009F017FC0023C4E90933E36246
:1090C000204638BD184007004C870700808A70474B
:1090D000C08A7047406A7047436A994208D2836ADF
:1090E0000022914202D05B680132FAE718687047AB
:1090F0000020704738B5044608460D46FFF79EFD30
:1091000008203FF009FF0023C0E90053A36A2BB9F0
:10911000A062636AE0620133636238BDE36A58604B
:10912000F7E770B50446406800252368AB4206D9CE
:10913000466808213FF008FF01353046F5E7002377
:10914000C4E90033A36070BD154B70B504460360DD
:109150000025636A9D4212D2A36A0022954202D082
:109160005B680132FAE71E683046FFF76CFD20B9F4
:109170001EB1336830465B6898470135E9E704F172
:1091800024052846FFF7CDFF2846FFF7CAFF04F164
:10919000180009F05DFB2046FFF724FD204670BD56
:1091A0001840070010B50446FFF7CEFF20463021D7
:1091B0003FF0CAFE204610BDA0F8A8107047C0F8C6
:1091C000AC1070472DE9FF41013A13F8014BD6B2BC
:1091D0000268CDE90233526C05460F4690470C2CCD
:1091E00002462968029B79D02FD8052C69D01AD85D
:1091F000022C60D00BD8012C53D006230093D1F859
:10920000DC600023224639462846B0476EE0032C36
:1092100054D0042CF1D10093D1F894403346394610
:109220002846A04762E0092C52D007D8062C4BD024
:10923000082CE2D10093D1F8A440EFE70A2C4DD0DE
:109240000B2CDAD1D1F8B4402DE0162C51D00FD828
:10925000112C40D005D8102CCFD10093D1F8B840B4
:10926000DCE7122C18D0132CC7D1D1F8C8401AE073
:109270001D2C04D00CD8182C3FD01B2CBDD1009332
:10928000D1F8D4803346224639462846C0472DE0DF
:109290001E2C36D0522CB0D1CDE90063D1F8C46079
:1092A00020E0D1F88440324639462846A44604B02E
:1092B000BDE8F0416047D1F88840F4E7D1F890402C
:1092C000F1E7D1F89C40EEE70093D1F8A040A5E784
:1092D000D1F8AC40E7E7D1F8C040E4E7CDE900635E
:1092E000D1F8B060234639462846B04704B0BDE8FF
:1092F000F0810093D1F8CC4090E70093D1F8D040B2
:109300008CE7D1F8D840CEE700F18C034FF6FF721E
:10931000B0F8B010914204D11C309842F8D100202E
:1093200070470120704708B503689B6A98474FF65D
:10933000FF73C01A18BF012008BD000038B50A4BE2
:109340000446186803681B690D469847204604F1D7
:109350008C03B0F8B020AA4204D01C309842F8D157
:10936000002038BD0120FCE7DC41070000F18C0340
:1093700090F9C820002A04DB1C309842F8D1002064
:1093800070470120704730B500231C2404FB030202
:10939000B2F8B0508D4204D00133052BF6D1002035
:1093A00002E092F8C800C00930BD30B500231C248B
:1093B00004FB0302B2F8B0508D4202D1B2F8C000F3
:1093C00030BD0133052BF3D11720F9E71FB5ADF8F8
:1093D0000D200268009302248DF80C400323D2F87C
:1093E000F04003AAA04704B010BD1FB5ADF8092096
:1093F000ADF80B30069A0368009204248DF80840FB
:1094000002AAD3F8F0400523A04704B010BD1FB551
:10941000ADF80B30BDF81830ADF80920ADF80D30BF
:10942000079A0368009210248DF8084002AAD3F826
:10943000F0400723A04704B010BD1FB5ADF80B30B6
:10944000BDF81830ADF80920ADF80D30079A036863
:10945000009208248DF8084002AAD3F8F0400723B0
:10946000A04704B010BD012380F83C3170470000D4
:109470001FB5ADF80A309DF818308DF80C30084B48
:109480008DF8092001208DF80800186802AA0368E9
:109490000092D3F8944004220523A04704B010BDE5
:1094A000DC41070001299CBF00EB8100C0F854217A
:1094B00070471FB5ADF80D20026800930A248DF89F
:1094C0000C400323D2F8F04003AAA04704B010BD1B
:1094D00070B500231C2505FB0304B4F8B0608E4270
:1094E00004D00133052BF6D1002002E084F8C82017
:1094F000012070BD70B500231C2505FB03F406197F
:10950000B6F8B0608E4204D00133052BF5D10020AF
:1095100010E004F1B3010144941D11F8015F04F857
:1095200001599442F9D11C2202FB0303012093F854
:10953000B330237070BD000010B5054B03600446C6
:10954000D0F8400108B146F09FFB204610BD00BF97
:109550003C40070010B50446FFF7EEFF20464FF4ED
:10956000AE713FF0F1FC204610BD00002DE9F04344
:109570001D4B1D688BB006230F4604210024904626
:109580002A680097CDE90713C821CDE905410C21D0
:10959000CDE90331CDE901840646D2F85490234643
:1095A000302260212846C847D8B909F0D5FA0446C8
:1095B00009F0D2FAD6F8AC30001B98422B680DD2D5
:1095C0001B6928469847336842465B6B39463046EC
:1095D00098470028ECD00BB0BDE8F083DB6D28463F
:1095E00098470020F7E700BFDC410700F8B50368A3
:1095F0009B6A044698474FF6FF73984206461ED072
:10960000104B1D682B680146D3F8983028469847C0
:1096100009F0A2FA074609F09FFAD4F8AC30C01B53
:1096200098420CD22B6828461B699847236831461C
:109630009B6B204698470028EDD10120F8BD002003
:10964000FCE700BFDC4107002DE9F3410546089C1B
:10965000A5F848111078C5F84C41013085F84A0149
:10966000002085F850011948066830680092D0F84B
:109670009480DBB2042230460F46C04724B309F081
:109680006BFA044609F068FAD5F8AC30001B984232
:1096900014D2336830461B6998472B6839469B6B58
:1096A0002846984750B195F850010028EAD04FF667
:1096B000FF73A5F8483102B0BDE8F0814FF6FF73A3
:1096C000A5F848310020F6E72046F4E7DC41070022
:1096D0002DE9F047994603689B6A044698474FF680
:1096E000FF739842074604D14FF000084046BDE89A
:1096F000F08723680146D3F8E0302046984780463B
:109700000028F1D000251C2303FB054ABAF8B060FD
:10971000BE4233D1DAF8C4303BB910203FF0FCFB35
:109720000746FFF73DFCCAF8C4701C2303FB054540
:10973000D5F8C450002DD7D02846B9F1000F21D15B
:10974000FFF772FC23682A46D3F8E47031464B4693
:109750002046B8470028C7D023682A46D3F8E83007
:109760003146204698470028BED023682A46314615
:109770002046D3F8EC30BDE8F04718470135052DF9
:10978000C2D1B1E7FFF72DFC002782465745D9DA51
:1097900039462846FFF727FCFFF74EFA494647F0BF
:1097A0003FF90028A2D00137F0E7F0B5C5B0044674
:1097B0009DF82851ADF80D200F4612218DF80C10A0
:1097C0002A4619460DF10F0046F0A4FD23684B9A76
:1097D0000092D3F8F06003AAEB1C39462046B0474C
:1097E00045B0F0BDF0B5C5B004469DF82851ADF8C0
:1097F0000D200F4652218DF80C102A4619460DF106
:109800000F0046F087FD236800220092D3F8F06035
:1098100003AAEB1C39462046B04745B0F0BD70B5F1
:1098200000241C2505FB04F3C618B6F8B0608E4270
:1098300004D00134052CF5D1002006E0C93314888A
:10984000C452C11893788B70012070BD10B500F11F
:10985000C90300F2551033F8194C8C4201BF1C8823
:1098600014809C7894701C338342F4D1002010BD86
:1098700070B500241C2505FB04F3C618B6F8B060CB
:109880008E4204D00134052CF5D1002006E0B4331B
:1098900018440368136083889380012070BDF0B57D
:1098A00000241C2606FB04F3C518B5F8B0708F42DF
:1098B00004D00134052CF5D1002009E0BA3303446B
:1098C000591E11F8010F20B9C1F1BF004019F8D19C
:1098D000F0BD196811609B8893800120F8E70000B3
:1098E0002DE9F04196B098461C9E044600271C23A3
:1098F0004FF6FF7C03FB07F56019B0F8B0E0E645D2
:1099000005D00137052FF5D116B0BDE8F08117233A
:1099100080F8B220A0F8C030A0F8B01080F8B38072
:1099200005F1B4033168E150E218B388938001A9CE
:10993000731E052213F8010F505412F1FF32F9D2B1
:109940000D4B1868BA3503686719D3F890303A465A
:10995000984708B96051B880D4F85441002CD3D04E
:109960003246414603A8FEF78FFA03A8A04703A892
:10997000FEF7D2F9C8E700BFDC4107002DE9F0414E
:1099800006460F46904600F1B405002415F8013C48
:10999000BB420CD106224146284646F089FC30B92C
:1099A0001C2303FB0464B4F8B000BDE8F08101346B
:1099B000052C05F11C05E9D14FF6FF70F5E72DE9FF
:1099C000F04106460F46904600F1B405002415F814
:1099D000013CBB420CD106224146284646F068FCB9
:1099E00030B91C2303FB0464D4F8C400BDE8F08143
:1099F0000134052C05F11C05E9D10020F6E738B546
:109A00004FF6FF7204460B460020B3F8B050954263
:109A100003D093F8B250012D08D00130052803F18E
:109A20001C03F2D12046FEF71FFA0AE01C23434331
:109A300003F1B4020B440A44204693F8B310FEF736
:109A400023FA204638BD98B5B0F8A820D31DEC46BF
:109A5000DB08ACEBC30300AF9D460368D3F88C4032
:109A60006B46A047003018BF0120BD4698BD0000DE
:109A70002DE9F04F87B002AF9146DFF890A0B960B2
:109A800000F18C020546FA601C460026B5F8B0804D
:109A9000C7F804D04FF6FF7398452BD0B5F8C03007
:109AA000DA1D6946D208A1EBC202033B95469BB280
:109AB000A4B29C424FF01B0228BF1C468DF8082020
:109AC0003A89ADF80920494622460DF10B0046F0CF
:109AD00021FCDAF800000DF1080B0268CDF800B0A7
:109AE000E31CD2F894B0DBB204224146D847D7F841
:109AF00004D00136FB681C359D42C7D1002E14BF2F
:109B0000204600201437BD46BDE8F08FDC41070039
:109B10002DE9F04F87B002AFC7E9002100F5A07230
:109B2000064600F1B405BA601C464FF0000935F84E
:109B300004ACC7F80CD04FF6FF739A4542D0AB89FE
:109B4000DA1D6946D208A1EBC202033B95469BB2DF
:109B5000A4B29C424FF01D0228BF1C468DF808207D
:109B6000BA88ADF80920396822460DF10B0046F09D
:109B7000D1FB002386F83C31194BD3F800800DF15E
:109B8000080BD8F80020CDF800B0E31CD2F894B050
:109B9000DBB2042251464046D84796F83C316BB9B7
:109BA000D8F8003040461B699847336815F8011C07
:109BB0005B6B2A46304698470028EED1D7F80CD088
:109BC00009F10109BB681C35AB42B0D1B9F1000FF6
:109BD00014BF204600201437BD46BDE8F08F00BFFB
:109BE000DC4107002DE9F04F89B002AF042BFA6089
:109BF0003A6CC7F808D0C7E9041014880AD0036883
:109C000004220092D3F8DC502346A8471C37BD46F7
:109C1000BDE8F08FFB6807336A46DB08A2EBC3039D
:109C20009D460DF1080805238DF80830002388F8BB
:109C30000130484B013CD3F800A0A4B20225DAF869
:109C400000305046DB699847844258D23B6C5B88B1
:109C5000A34254D9DAF8003021461B6A504698478F
:109C600003689B688346984742F603030134984291
:109C7000A4B255D15846FEF7E6FA231A5942594183
:109C8000DBF8003079609B6858469847796802464F
:109C900011B9B0F5245F45D15846C7E90012FEF767
:109CA0003FFAD7E900120228064614BF0223012317
:109CB00098F8010008B988F8013098F80100984236
:109CC0001DD105F102091FFA89F928F8054008EBB2
:109CD000090311B9B2F5245F27D158467B60FEF71E
:109CE0001CFA7B6801463246184646F013FB09EB26
:109CF0000605ADB20236FB682E44B3429FDA022D50
:109D00001CD17A693B6C12681B880A210091D2F839
:109D1000DC40D7E904100422A047D7F808D075E743
:109D20000021ADE702260123C2E7DBF800305846E8
:109D30009B689847043528F80900DAE7064B18684D
:109D40000368CDF80080D3F894403969EBB204225F
:109D5000A047E2E77C410700DC4107002DE9F04F16
:109D600089B002AF052B3E6CC7F808D08346C7E91F
:109D7000032134880BD8036804220092D3F8DC5006
:109D800006222346A8471C37BD46BDE8F08FFA6877
:109D900007326946D208A1EBC202954607228DF828
:109DA0000820B288B2F5205F0DF1080A0DD0DBF86B
:109DB000002033880A210091D2F8DC40396906225C
:109DC0005846A047D7F808D0DDE7063B9BB27B6139
:109DD000274B013CD3F80090B31DA4B201257B6052
:109DE000D9F800304846DB699847844232D27388FC
:109DF000A3422FD9D9F8003021461B6A484698471C
:109E000003689B6880469847B38883421BD14046CD
:109E1000FEF786F97B69984215D14046FEF77DF939
:109E20007A69796846F044FA68B94046FEF753FE0D
:109E30002AF805004046FEF750FEAB1C9BB20435E5
:109E40002AF80300ADB2FA68EB1C9A4202DD013435
:109E5000A4B2C5E7012DAAD0064B18680368CDF857
:109E600000A0D3F894403969EBB20422A047A9E7D7
:109E70007C410700DC4107002DE9F04F89B002AFBB
:109E8000062BBA603A6CC7F80CD081468B46158811
:109E900004D19388A3F52053012B0FD9D9F80030B2
:109EA00010220092D3F8DC402B4659464846A04782
:109EB000D7F80CD01C37BD46BDE8F08FBB68073320
:109EC0006A46DB08A2EBC3039D4602AE11238DF860
:109ED000083000237370364B013DD3F800A0ADB2BB
:109EE0000224DAF800305046DB699847854247D2B1
:109EF0003B6C5B88AB4243D9DAF8003029461B6AD9
:109F0000504698473B6C02689B887B61926880460C
:109F100090477B69834230D14046FEF701F9022821
:109F2000034614BF142306233B61737878610BB991
:109F30003B7C737073783A69934221D14046FEF7B7
:109F4000CAFD30534046FEF7C8FDA31C9BB2043443
:109F5000A4B2F052331940467B60FEF7DEF87B680E
:109F60007A690146184646F0D5F97B69BA681C44FF
:109F70003B69A4B223449A4202DB0135ADB2B0E79B
:109F8000022C09D13B6CD9F800201B880A210091D2
:109F9000D2F8DC40102288E7064B18680368009668
:109FA000D3F894500422E3B25946A84780E700BF93
:109FB0007C410700DC4107002DE9F04F89B002AF7A
:109FC00091463A6CC7F808D0062BC7E903101588EC
:109FD0000BD0036804220092D3F8DC4008222B4601
:109FE000A0471C37BD46BDE8F08F09F107036A465C
:109FF000DB08A2EBC3039D460DF1080809238DF889
:10A000000830002388F801306D4B1B687B613B6C86
:10A01000013D0433ADB202247B607B6978691B6823
:10A02000DB699847854280F083803B6C5B88AB425C
:10A030007ED97B6978691B6829461B6A9847036843
:10A040009B68064698473B6C9B888342336805F1C2
:10A05000010A1FFA8AFA9B6830467AD1984742F67D
:10A06000030398423DD13046FEF7EDF8824535D0E6
:10A070003046FEF755F898F801200228034614BF31
:10A080004FF0150B4FF0070B0AB988F801B098F89C
:10A0900001203B605A454BD128F804A03046FEF71A
:10A0A0004FF8A21C92B2023508F80200E21C92B2EC
:10A0B000304628F80250FEF730F805343B68A4B269
:10A0C00008EB04051A460146284646F023F93B688A
:10A0D0001C44A4B2A344D9452ADB55460135ADB290
:10A0E0009BE7336830469B68984742F602139842D4
:10A0F000F4D128F804A03046FEF716FA0234A4B2D0
:10A10000A9EB040980B21FFA89F9814528BF81466D
:10A11000304608EB0405FEF709FA4A4601464C446E
:10A12000284609F1020946F0F5F8A4B288F8019032
:10A13000022C38D13A693B6C12681B880A210091C5
:10A14000D2F8DC40D7E903100822A047D7F808D09E
:10A1500047E7984742F603039842BFD13046FDF7E0
:10A16000DFFF02288346B9D13046FDF7D6FF5A46B5
:10A170000146786846F09CF80028AFD128F804A082
:10A180003046FDF7E7FF0234A4B2A9EB04091FFA39
:10A1900089F980B2814528BF8146304608EB040525
:10A1A000FDF7D6FFB9E7074B18680368CDF80080C4
:10A1B000D3F89450F968E3B20422A847C6E700BF79
:10A1C0007C410700DC4107002DE9F043012B97B0EB
:10A1D000044602AF0E461546E8460BD0036804223B
:10A1E0000092D3F8DC4018220023A0475437BD4624
:10A1F000BDE8F083B0F83E1129B33B6F1B78DB0755
:10A2000021D5204B1868036801391B6A9847002341
:10A2100081461C2000FB03F2A118B1F8B0C0B44580
:10A220002CD1B432224491F8B310381DFDF72CFE26
:10A230004846B4F84431D4F84021391DFEF705F9F9
:10A24000381DFDF769FD00230735A4F83E31A4F859
:10A250004431ED086B46A3EBC5039D4619238DF8E9
:10A260000830094B186802AA03680092D3F894409A
:10A27000042201233146A047C546B7E70133052B29
:10A28000C8D1E0E77C410700DC4107002DE9F04F31
:10A2900087B002AF032B04460D467A601E46C7F80E
:10A2A0000CD00DD8036804220092D3F8DC401622AB
:10A2B0000023A047D7F80CD01437BD46BDE8F08F77
:10A2C000BB6B1B883B811FFA83F8BB6BB3F802B0F2
:10A2D0004B4BD3F80090D9F800304846DB699847DB
:10A2E00008F1FF318BB2834206D923680A2200921B
:10A2F000D3F8DC60434620E0D9F8003048461B6ABA
:10A30000984703689B688146984742F60303984242
:10A3100002D023680B22EAE74846FDF794FF404548
:10A320008246F6D14846FDF70BFF03070AD423689F
:10A3300003210091D3F8DC605346162229462046BB
:10A34000B047B7E7B4F83E31E3B948463B60FDF7A4
:10A35000FDFE01468246D4F8400146F039F93B68DB
:10A360003A89A4F83E21C4F84001A4F84431524689
:10A37000194646F0CDF8B4F844315B4507D0236860
:10A380000722B4E75345F6D023680E21D1E7331FE7
:10A390005FFA83FA0BEB0A024846BA60FDF7D6FE75
:10A3A000BA6880B28242EADCBB6BD4F84001524604
:10A3B000191D584445F0AEFFB4F84421B96B0AEBBF
:10A3C0000203A4F844317B6807336A46DB08A2EB3A
:10A3D000C3039D4617238DF8083032460DF109005E
:10A3E00045F098FF074B186802AC02680094731C94
:10A3F000D2F89440DBB204222946A0475AE700BFB6
:10A400007C410700DC4107002DE9F04F8FB002AF1F
:10A41000C7E90021FB60B0F8A830F96807336A4645
:10A42000DB08A2EBC30307F118059D4683462846C7
:10A4300000F0E2FE0DF108090124BD60DBF80030F8
:10A44000CDF804904FF420520092D3F8BC507968B4
:10A450004FF6FF7322465846A847054620B199F8A3
:10A460000030112B04D001203437BD46BDE8F08FF9
:10A4700099F801307B61A3F1040802235FFA88F8A0
:10A4800009F102063B614FF6FF7A3B69AB4204DB00
:10A490004FF6FF739A45D1D0E5E7FB68E3B930206A
:10A4A0003EF03AFD3146728831F8043B0092044692
:10A4B0004246FEF7F1FD21463868FEF77BFD7488C1
:10A4C000D7E904320134A4B2002C134408BF4FF082
:10A4D000000A3B611644D8E7B86800F0CBFE40455F
:10A4E000EDD1B86800F0C4FE42460146301D45F08B
:10A4F000DFFE0028D3D0E2E72DE9F04F8DB0B0F8B1
:10A50000A83004AFC7E9042107336A46DB08A2EB91
:10A51000C3039D4682463869FEF763FD0DF11009BD
:10A52000F8604FF00008FB6898454ADA4146386900
:10A53000FEF759FDB861FEF7C9FD0646B869FEF79A
:10A54000C7FDB860DAF80030CDF8049042F6030297
:10A550000092D3F8A8407969BB6832465046A047BC
:10A56000054678B399F80030092B27D199F80130C6
:10A57000FB61053BDBB27B6009F102044FF0020B8B
:10A58000AB45DFDA38203EF0C7FCB4F80330029365
:10A59000A37801932388009306467B697A68611D3E
:10A5A000FEF756FB3146B869FEF7A4FDB4F8036028
:10A5B000FB690136B6B29B441C44E1E708F101088F
:10A5C000B1E701202437BD46BDE8F08F2DE9F04FFB
:10A5D0008FB0B0F8A83002AF0733C7E90421DB0819
:10A5E0006A46A2EBC3039D4602AB82463869FB6212
:10A5F000FEF7F7FC4FF0000BF860FB689B456EDA46
:10A6000059463869FEF7EFFC7862FEF761FDB860E5
:10A61000786AFEF75FFD431E386200267B603B6A66
:10A620009E4259DA3146786AFEF756FD7B68F8613A
:10A630009E424AD0711C786AFEF74EFD0546F869C5
:10A64000FEF7BAFB013084B2002D40D02846FEF759
:10A65000B3FBB862BB6AA3423CD3DAF80030FA6AB3
:10A660000092D3F898507969BB6A22465046A847B1
:10A670000546002834D0FB6A1B78052B2AD1FB6ADB
:10A6800093F801904FEA8903BB61FB6A4FF002091E
:10A6900003F10208A945E0DA20203EF03DFCB8F8BD
:10A6A00000300093022208EB020104467B69FEF7AA
:10A6B00065FC2146F869FEF785FBB8F80040BB69E8
:10A6C0000134A4B299449844E4E70025B7E7BB6895
:10A6D000BB62BFE70136A2E70BF1010B8DE701205A
:10A6E0003437BD46BDE8F08F022A7FB504460D46DB
:10A6F00009D0036804220092D3F8DC400222002330
:10A70000A04704B070BD1B88B0F8A8209A4228BFAB
:10A710001A461C20002300FB0341B1F8B060AE4292
:10A7200011D1A1F8C020ADF80D20094A032310680B
:10A730008DF80C30026803A90091D2F894402946A4
:10A740000422A047DDE70133052BE4D1EBE700BF8E
:10A75000DC410700042A15D1B0F848218A4211D102
:10A7600090F84A211978013A8A420BD1D0F84C214D
:10A7700001211170D0F84C211B68C2F8013005236B
:10A7800080F850317047022A70B51CD100221C2578
:10A7900005FB0204B4F8B0608E4215D11A88A4F803
:10A7A000C020B0F848218A420DD190F84A21032AEE
:10A7B00009D1D0F84C110A70D0F84C111B88A1F8BF
:10A7C000013080F8502170BD0132052AE0D1E8E760
:10A7D000012A38B50446154613D9B0F84801884215
:10A7E0000FD194F84A0105280BD1D4F84C11087008
:10A7F000D4F84C0119460130013545F08BFD84F841
:10A80000505138BD012A38B50446154613D9B0F861
:10A81000480188420FD194F84A0111280BD1D4F88D
:10A820004C110870D4F84C0119460130013545F03F
:10A8300071FD84F8505138BD38B50446B0F8480170
:10A84000884215460FD194F84A110B290BD1D4F840
:10A850004C010170D4F84C0119460130013545F026
:10A8600059FD84F8505138BD38B5044615469AB1A3
:10A87000B0F8480188420FD194F84A0109280BD159
:10A88000D4F84C110870D4F84C0119460130013548
:10A8900045F040FD84F8505138BD6AB9B0F84831F0
:10A8A0008B4209D190F84A31132B01BFD0F84C21CB
:10A8B0001370012380F850317047000070B50546D1
:10A8C00090F8850094B0F8B1104B114C1868B4F8AA
:10A8D0004410036801391B6A984704F14702064691
:10A8E00094F8461001A8FDF7CFFA94F84D3004F122
:10A8F0004E0201A93046FDF7A8FD01A8FDF70CFAAC
:10A90000002385F88530012014B070BD7C4107001C
:10A91000607000202DE9F04F9BB0012B8846049217
:10A9200061D9249A023B1688059300F5A07200F1C4
:10A93000B404039234F8043C43453FD12569002D0B
:10A9400040D02846FEF74DFB4FF0000A8146D14526
:10A9500034DD51462846FEF746FB0746FEF7B6FBB8
:10A96000864228D93846FEF7B3FB864223D83846BC
:10A97000FEF7B0FB249B8146002503F1020AA9459E
:10A980001CDD29463846FEF7A7FB8346FEF714FA7E
:10A9900086420ED1224614F8011C07A8FDF774FA6E
:10A9A0005846059B524607A9FEF77AFA07A8FDF715
:10A9B000B3F90135E3E70AF1010AC8E7039B1C3448
:10A9C000A342B7D1049B1D2B0DD11AAB1E2203F855
:10A9D0004C2D064A106802680093D2F89440012377
:10A9E00004224146A0471BB0BDE8F08FDC410700C0
:10A9F0001F4B70B5044640F8863B03F0E6F804F1BF
:10AA0000870003F0E2F81B4B04F1980503F11006F0
:10AA1000186859682A4603C20833B3421546F7D16D
:10AA200041F288331721C4F8AC300023A4F8A810F1
:10AA3000A4F83E31C4F84031A4F8443104F1B40222
:10AA400004F5A0704FF6FF7522F8045C02F8023C92
:10AA500002F8013C136093809181136113751C32DD
:10AA60008242F1D1C4F85431C4F85831204670BD47
:10AA70003C400700204007002DE9F04F002304462A
:10AA8000A7B098464FF0FF351C204FF6FF7600FB2D
:10AA90000342B2F8B0208A4208BF1D46B24203F119
:10AAA000010318BF08F10108052BF0D16B1C6ED013
:10AAB0001C236B4303F1B4072344E619324693F891
:10AAC000B3106846FDF7E0F9B8F1010F2FD1314B13
:10AAD000D3F800804FF0000942F6030BD8F800309D
:10AAE0004046DB6998471FFA89FA50451AD9D8F8C9
:10AAF000003051461B6A4046984703689B6882466F
:10AB0000984758450BD1694613A8FDF7B1FB50464D
:10AB1000002213A9FDF7B9FC13A8FDF7FDF809F110
:10AB20000109DBE70023A4F83E31A4F84431D4F84E
:10AB30005881B8F1000F08D0694613A8FDF798FBBB
:10AB400013A8C04713A8FDF7E7F81C2303FB054330
:10AB50004FF6FF72C3F8B0200022E251B280D3F862
:10AB6000C400A3F8C8201721A3F8C01083F8CA2096
:10AB700083F8CB2010B103685B6898471C2303FB64
:10AB800005440023C4F8C4306846FDF7C5F827B073
:10AB9000BDE8F08F7C4107002DE9F04FA9B000F52A
:10ABA000A073DFF8DCB00193064600F1B4044FF067
:10ABB00000084FF6FF7934F8041C494551D02F4B5B
:10ABC00018680368D3F8983098470546002848D19C
:10ABD000224614F8011C02A8FDF756F9DBF80070B4
:10ABE00008F101083B683846DB6998471FFA85FA87
:10ABF00050451AD93B6851461B6A38469847026847
:10AC000092688246904742F6030398420BD102A90C
:10AC100015A8FDF72DFB5046002215A9FDF735FCC0
:10AC200015A8FDF779F80135DCE70023A6F83E31D9
:10AC3000A6F84431206904F8023C04F8013C236082
:10AC4000A380C4F806306381172324F8049CA381F1
:10AC500010B103685B6898470023236102A8FDF7E1
:10AC60005BF8019B1C349C42A5D1B8F1000FD4BF06
:10AC70000020012029B0BDE8F08F00BFDC410700B3
:10AC80007C41070010B500231C2101FB030292F850
:10AC9000C840A40702D5B2F8B00010BD0133052B9F
:10ACA000F3D10620F9E730B500231C2404FB03028E
:10ACB000B2F8B0508D4204D00133052BF6D10020FC
:10ACC00001E092F8C80030BD2DE9F04F99B002AF15
:10ACD000044697F880B07A60BBF1010F0E461D461E
:10ACE0000DD8122B07D1036804220092D3F8DC4060
:10ACF0002A460023A0475C37BD46BDE8F08FD7F851
:10AD00008430B3F800808B4BD3F800A0DAF8003021
:10AD10005046DB69984708F1FF318BB283420CD96A
:10AD2000122DE8D123680A220092D3F8DC902A463B
:10AD3000434631462046C847DDE7DAF80030504642
:10AD40001B6A984703689B688146984742F603034D
:10AD5000984240F0A6804846FDF775FA804548467F
:10AD600001D1122D53D1FDF7EBF9010740F1DB8042
:10AD70004846FDF7E8F910F002000FD031462046B2
:10AD8000FFF791FF030648D423680F220092D3F8FF
:10AD9000DCA0204643461222D047012000234FF07A
:10ADA0001C0C0CFB03F2A118B1F8B0E0B6455ED163
:10ADB000D7F8843091F8B310ABF1020BB4325FFADC
:10ADC0008BFB03F1020A224448B3032384F8853045
:10ADD00084F84610A4F844801368C4F84730938878
:10ADE000A4F84B300A2384F84DB084F885305A46D5
:10ADF000514604F14E0045F08DFA94F88530122D3D
:10AE00009B4484F885B07FF476AF6D4642E0FDF751
:10AE100097F942077FF56FAFAAE70020BEE707F179
:10AE20000C00FDF731F85B46524607F10C0148462D
:10AE3000FDF70BFB07F10C00FCF76EFF122D7FF402
:10AE40005AAF7B6807336D46DB08A5EBC3039D460D
:10AE5000132202AB8DF80820374A1068026800936D
:10AE6000D2F89440012304223146A04717E0013371
:10AE7000052B96D1122D7FF43EAF7B6807336D46CC
:10AE8000DB08A5EBC3039D46132202AB8DF8082017
:10AE90000028E1D013232371012384F88430AD46C8
:10AEA00029E7D9F8003048469B689847B0F5245FF9
:10AEB00039D14846FDF734F9022834D14846FDF728
:10AEC0002CF9028842F602139A422CD1DAF80030AB
:10AED000A8F102011B6A5046984703689B688146A7
:10AEE000984742F6030398421DD100231C2000FB23
:10AEF00003F2A118B1F8B0C0B44510D1B432224465
:10AF000091F8B31007F10C00FCF7BEFFD7F88430BE
:10AF100007F10C015A884846FDF7B7FA8AE7013372
:10AF2000052BE4D18AE7122D7FF4E5AE23680322D6
:10AF3000FAE600BF7C410700DC4107002DE9F04F35
:10AF40009DB0984602AFB8F10A0F154604460E466A
:10AF500097F89020D7F89430C7F80CD00FD1022A78
:10AF600017D0036804220092D3F8DC404246002345
:10AF7000A047D7F80CD06C37BD46BDE8F08F042A47
:10AF800007D0036804220092D3F8DC400C2200238F
:10AF9000EEE7B8F10A0FB3F8009014BF5B88002306
:10AFA0007B618A4BD3F800B0DBF800305846DB6990
:10AFB000984709F1FF318BB2834207D923680A22EF
:10AFC0000092D3F8DC5042464B4625E005F1FF3AAB
:10AFD0000735ED086B46A3EBC5039D46B8F10A0F94
:10AFE0006A4614BF0D230B2302F8083FDBF800303C
:10AFF0003A611B6A5846984703689B68054698471C
:10B00000B0F5205F2AD17B6953B1236804220092F6
:10B01000D3F8DC500B224B4631462046A847A8E720
:10B020002846FDF77DF880462846FDF776F842462B
:10B0300001460DF1090045F06DF908F101081FFA0C
:10B0400088F8634B3A69186803680092D3F8944013
:10B0500004225FFA88F33146A0478AE742F60303E9
:10B06000984240F08F802846FDF7EBF848451DD107
:10B070007B6913B123680B22A2E72846FDF760F82D
:10B080003B6958702846FDF7DEF83B695880284632
:10B09000FDF746F880462846FDF73FF84246014650
:10B0A00003A845F037F908F10408C8E72846FDF77A
:10B0B00047F8820702D42368022281E72846FDF779
:10B0C00042F810F0020B10D031462046FFF7EBFD9E
:10B0D000030614D423680F220092D3F8DCB0424652
:10B0E0004B462046D8474FF0010B2846FDF732F873
:10B0F0007A6983B29A4205D32368072260E74FF04A
:10B10000000BF2E77B6980B2C01A8245A8BF824675
:10B110001FFA8AF3BB6004F5A07304F1B4097B60E5
:10B120004FF001081FFA8AFA39F8043CB34218D1EB
:10B130004A4619F8011C07F11C00FCF7A5FECDF8E2
:10B1400000A03B697A69434407F11C012846FDF7DA
:10B150005DF907F11C00FCF7DFFDBB6898441FFA9E
:10B1600088F87B6809F11C099945DDD1BBF1000F16
:10B170003FF467AF42463969201D45F0CBF884F8AB
:10B180008480F6E6B0F5245F1DD12846FDF7CCF9A2
:10B190007A6983B29A42AFD27B6980B2A0EB03088E
:10B1A000C2452846A8BFC246FDF7C0F97B691FFA11
:10B1B0008AF2C1180AF1010A0DF1090045F0AAF856
:10B1C0001FFA8AF83DE74FF001083AE77C41070093
:10B1D000DC41070010B5054C2046FFF709FC20466E
:10B1E000034A0449BDE810403DF087BC6070002070
:10B1F000006000203995020073B5002504460E4614
:10B2000040F8041B10222946ADF804508DF8065072
:10B2100045F07EF9257526B3304645F0B1FD451E53
:10B22000002D237D19DB0F2B1ED8735D2D2B02D132
:10B230000135023DF4E77219002112F8012C8DF856
:10B24000042001A810228DF8053045F0C7FE237DAB
:10B25000E218013310712375EBE7022B04D80223A7
:10B260002375204602B070BD1023F9E700687047CF
:10B2700004307047007D70472DE9F047144C80463C
:10B280004D1E4FF4AA594FF02D0A6A1C1AD018F817
:10B29000057010222146380907F033FC1022611C8A
:10B2A00007F00F0007F02DFC0C2D04F1020606DC60
:10B2B00029FA05F3DB0744BFE61C84F802A0013D30
:10B2C0003446E2E7002323700148BDE8F08700BF61
:10B2D000BC710020007970472DE9F04F89B090468D
:10B2E0000DF1180B027A9DF848601F4600230546B1
:10B2F00089460693ABF80430FAB99E4214BF4FF06A
:10B30000020A4FF0030A2B6828461B699847194B1D
:10B31000EA881C680021072023680091CDE9030119
:10B32000CDE9011B2046D3F83CB011465346D8471F
:10B3300028B1002009B0BDE8F08F9A46E3E7236802
:10B340004A461B6C4146204698470028F1D12368A5
:10B350003A465B6C3146204698470028E9D123687D
:10B3600001219B6C204698470028E2D101202871DA
:10B37000E0E700BFDC410700034B002101711868C2
:10B3800003689B6C184700BFDC4107002DE9F341BF
:10B39000124B1D682B6801221B6D07460E4628467E
:10B3A0000021002498472B68CDE90044D3F84C8055
:10B3B00020231A4601212846C04768B90121797126
:10B3C0002B6886EA01021B6D28469847B0FA80F088
:10B3D000400902B0BDE8F0812046FAE7DC410700F1
:10B3E000C180704701727047022908BFC260704770
:10B3F00070B50B4D04461C30164607F093FA2946EB
:10B4000004F1280007F0A7FA294604F1340007F0F8
:10B41000A2FA2368314620465B69BDE870401847B0
:10B420004C8707002DE9F0410C4D04460F461C30B7
:10B430002946164607F08FFA394604F1280007F02E
:10B4400071FA294604F1340007F085FA2368314681
:10B4500020465B69BDE8F041184700BF4C870700F4
:10B460002DE9F0410C4D04460F461C302946164686
:10B4700007F071FA294604F1280007F06CFA394602
:10B4800004F1340007F04EFA2368314620465B6928
:10B49000BDE8F041184700BF4C8707007FB5C36B7C
:10B4A00004460D468BB10B6801A89B69984701A91A
:10B4B00004F1340007F0A7FA064601A807F0C8F91E
:10B4C0001EB90024204604B070BD636A73B12946DA
:10B4D00001A8FCF7EDFC01A904F11C0007F086FAB5
:10B4E000064601A807F0B4F9002EEAD0236B6BB131
:10B4F000294601A8FCF756FD01A904F1280007F030
:10B5000082FA044601A807F0A3F9DBE70124D9E792
:10B5100038B5A0220E4D0F4B0360C28000230122DC
:10B520000446037143710272C0E90333C0E9053375
:10B5300029461C3007F0D7F9294604F1280007F006
:10B54000D2F9294604F1340007F0CDF9204638BD80
:10B550004C8707003C41070003688B4208D94368C9
:10B5600000228A4202D05B680132FAE7186870470D
:10B570000020704770B50446406800252368AB4240
:10B5800006D9466808213DF0DFFC01353046F5E775
:10B590000023C4E90033A36070BD000010B50A4B5E
:10B5A000044640F8343B07F053F904F1280007F053
:10B5B0004FF904F11C0007F04BF904F11000FFF7FC
:10B5C000D9FF204610BD00BF3C41070010B504461E
:10B5D000FFF7E4FF204640213DF0B6FC204610BDB9
:10B5E00070B50E4B05461868036800221B6D1146A6
:10B5F0000024984705F110066C712B699C4209D212
:10B6000021463046FFF7A8FF10B103685B689847F2
:10B610000134F2E73046FFF7ADFF70BDDC410700B3
:10B6200003688B4270B504461AD90022406813465D
:10B630008A42456803D0034601322846F8E7066887
:10B6400063B96560A268824208BFA36008213DF02B
:10B650007BFC2368013B2360304670BD5D60F1E7F1
:10B660000026F9E72DE9F041074694B00D46002485
:10B6700001F110082B699C422AD221464046FFF76F
:10B680006BFF0646FCF7CBFC00B3314601A8FCF784
:10B69000EFFD21464046FFF7C3FF1EB13368304639
:10B6A0005B6898472B6801A9DB6B2846984750B127
:10B6B00001A93846FCF7DCFD01A8FCF72DFB384654
:10B6C00014B0BDE8F08101A8FCF726FB0134D1E7F6
:10B6D0003846FCF7C9FBF2E72DE9F04FC568ABB07F
:10B6E00004460F4692469B469DF8D0809DF9D8901F
:10B6F0002DB3032922D11A46514604A8FCF7C4FBF6
:10B70000CDF80090359B4246394604A8FCF761FC11
:10B71000236804A9DB6B2046984748B104A917A801
:10B72000E468FCF7A5FD17A8A04717A8FCF7F4FAF2
:10B7300004A8FCF7F1FA2BB0BDE8F08F002504F166
:10B7400010032269AA420DD9184629460393FFF730
:10B7500003FF5A4651460646FCF72BFC039B002884
:10B7600041D006BB23691F2B08D9002104F110002A
:10B77000FFF756FF10B103685B6898474C203DF017
:10B78000CBFB5A4651460646FCF77EFB08203DF0AF
:10B79000C3FB0023C0E90063636933BB60612569B3
:10B7A000A0616B1C2361042F22D0CDF80090359B43
:10B7B000424639463046FCF70CFC3046FCF72FFC7D
:10B7C0000028B8D0E368002BB5D0314604A8FCF7B8
:10B7D0004FFD294604F11000FFF722FF3368304681
:10B7E0005B68984794E70135ABE7A3695860D6E7F3
:10B7F0004B46359A41463046FCF7FCFBDDE770B41A
:10B8000046799DF80C409DF9145026B10595039496
:10B8100070BCFFF761BF70BC7047000010B5054CED
:10B820002046FFF775FE2046034A0449BDE8104054
:10B830003DF063B9E4710020006000209DB5020076
:10B84000406870474368994208D283680022914259
:10B8500002D05B680132FAE7186870470020704731
:10B8600073B5044630203DF057FB32490546FDF7DD
:10B870001FF9E56154203DF04FFB002506461423D7
:10B8800002222D490095FCF72DFD266254203DF043
:10B8900043FB02231A46064628490095FCF722FD81
:10B8A000666230203DF038FB25490646FDF700F979
:10B8B000A66254203DF030FB20220423214900954C
:10B8C0000646FCF70FFDE662E069FCF72CFC206AF7
:10B8D000FCF729FC606AFCF726FCA06AFCF723FC55
:10B8E000E06AFCF720FCD4E90701FDF708F9616A7A
:10B8F000E069FDF704F9D4E90A01FDF700F92368CE
:10B9000011491B69204698472368294620465B69F0
:10B91000984723682046DB6A98472368E1699B6A59
:10B92000204698472368A16A9B6A204602B0BDE87A
:10B930007040184780410700854107008A41070091
:10B940008F410700944107009941070010B5044654
:10B95000C06948B1FCF7ECFB30B9E06910B103688D
:10B960005B6898470023E361206A48B1FCF7E0FB7D
:10B9700030B9206A10B103685B68984700232362DE
:10B98000606A48B1FCF7D4FB30B9606A10B1036853
:10B990005B68984700236362A06A48B1FCF7C8FB64
:10B9A00030B9A06A10B103685B6898470023A362AE
:10B9B000E06A48B1FCF7BCFB30B9E06A10B103683B
:10B9C0005B6898470023E36223682046DB6ABDE892
:10B9D00010401847006AFCF71FBC07B502AB0222F3
:10B9E00023F8021D406A1946FCF7B6FB03B05DF868
:10B9F00004FB10B504460846FCF771FB014628B16C
:10BA0000236820469B6ABDE81040184710BD2DE909
:10BA1000F0410025074688462C463B683846DB69DE
:10BA20009847A84211D93B6829461B6A384698476F
:10BA300003689B6806469847B0F5205F02D04645EC
:10BA400003D0264601353446E7E720463CB1FCF7F3
:10BA500067FB0228204604D1FCF75FFB0088BDE8A5
:10BA6000F081FCF75AFB4089F9E70000074A0260C1
:10BA70000022C0E90122C0E90322C0E90522C0E991
:10BA80000722C0E90922C262704700BFAC4107002B
:10BA900038B5044608200D463DF03EFA0023C0E9C3
:10BAA000005363682BB960602368A0600133236092
:10BAB00038BDA3685860F7E72DE9F84F04460D46F6
:10BAC000084604F10408FCF72EFB29464046FFF720
:10BAD000DFFF08203DF020FA0023C0E9005363692E
:10BAE000002B47D160612369A06101332361236882
:10BAF0002046DB69984700271FFA80FB2846FCF7A1
:10BB0000EEFFB8423BD939462846FCF7EAFF064625
:10BB1000FCF709FB31464046FFF7BAFF2368204691
:10BB2000DB69984781B23046FCF789FB3046FCF769
:10BB3000FAFA31464046FFF7ABFF4FF000093046B6
:10BB4000FCF785FB484518D949463046FCF781FB90
:10BB50008246FCF7E8FA51464046FFF799FF236812
:10BB60002046DB69984781B25046FCF7E1FC09F1B9
:10BB70000109E4E7A3695860B5E70137BEE7236828
:10BB80002046DB699847594682B22846BDE8F84FFF
:10BB9000FCF79EBF70B50446406800252368AB42A1
:10BBA00006D9466808213DF0CFF901353046F5E762
:10BBB0000023C4E90033A36070BD70B5044640683B
:10BBC00000252368AB4206D9466808213DF0BCF940
:10BBD00001353046F5E70023C4E90033A36070BDAA
:10BBE00038B50546064B45F8103B0446FFF7AEFE58
:10BBF0002846FFF7E2FF201DFFF7CCFF204638BDA7
:10BC0000AC41070010B50446FFF7EAFF204630219B
:10BC10003DF09AF9204610BD70B504460025236812
:10BC20002046DB699847A8420FD9236829461B6A3A
:10BC3000204698470646FCF77BFA20B91EB13368C8
:10BC400030465B6898470135E9E7201DFFF7A2FF02
:10BC5000002523699D420BD263690022954202D0E0
:10BC60005B680132FAE71868FCF780FF0135F0E7FE
:10BC700004F11000FFF7A1FF70BD000008B5054BEF
:10BC80001846FFF7F3FE044A04491846BDE8084089
:10BC90003CF033BF2472002000600020E1BB0200B2
:10BCA000704700000023C0F80831024B1868036891
:10BCB0001B68184718430700024B186803685B6845
:10BCC000184700BF18430700036800215B69184745
:10BCD00010B40368D3F8A4400023A4461A4640F6E3
:10BCE00003415DF8044B604737B5026802ABD2F8F8
:10BCF000A45023F8021D022241F205410446A84740
:10BD000050B9D4F81832BDF806201988914203D1F1
:10BD100093F9020003B030BD7F20FBE713B502A901
:10BD200061E9022303680822D3F8A4400B4640F6D9
:10BD30000141A04702B010BD13B502A961E9022379
:10BD400003680822D3F8A4400B4642F20101A04741
:10BD500002B010BD10B40368D3F8A44006220B460D
:10BD6000A44642F205015DF8044B60471FB5089CEC
:10BD70008DF804309DF818308DF805309DF81C3092
:10BD80008DF806302368CDF80730A388ADF80B3066
:10BD90009DF824308DF80D309DF828308DF80E3048
:10BDA0000368ADF80010ADF80220D3F8A4400F22CC
:10BDB0006B4642F20601A04704B010BD13B502ABBA
:10BDC000026803F8011DD2F8A44042F20A010122E0
:10BDD000A04702B010BD13B5ADF803309DF8103088
:10BDE0008DF805309DF814308DF8063003688DF815
:10BDF0000010ADF80120D3F8A44007226B4642F2B0
:10BE00000B01A04702B010BD13B503688DF80410F4
:10BE10008DF80520D3F8A440022201AB42F20C01B8
:10BE2000A04702B010BD10B588B00B9C8DF808304B
:10BE30009DF828308DF809302368CDF80A30A388A2
:10BE4000ADF80E309DF830308DF81030BDF834303C
:10BE5000ADF81130BDF83830ADF81330BDF83C30D6
:10BE6000ADF81530BDF84030ADF81730BDF84430AE
:10BE7000ADF81930BDF84830ADF81B300368ADF8A7
:10BE80000410ADF80620D3F8A440192201AB42F209
:10BE90000D01A04708B010BD10B40368D3F8A4404A
:10BEA0000023A4461A4642F20E015DF8044B604797
:10BEB0001FB5ADF80430BDF81830ADF80630BDF848
:10BEC0001C30ADF808300423ADF80A300623ADF875
:10BED0000C300368ADF80010ADF80220D3F8A44090
:10BEE0000E226B4642F21301A04704B010BD10B4FD
:10BEF000D0F8EC402CB11946104623465DF8044BAF
:10BF000018475DF8044B7047F0B51D4603688BB0C9
:10BF10009B6F0F461646044698470AA8721E00F803
:10BF2000287D062312F8011F1954013BFAD1109BFA
:10BF30006A1E0DF11701013B0F3512F8016F01F870
:10BF4000016DAA4213F8016F0E74F6D123682722FF
:10BF5000D3F8A45042F2270103462046A84723689D
:10BF60002046DB6F98470BB0F0BD13B502AB013A2A
:10BF700003F8081D062112F8014FCC540139FAD1FB
:10BF8000026842F22B01D2F8A4400722A04702B077
:10BF900010BD07B503680122D3F888306946984779
:10BFA00003B05DF804FB13B5002300930139CDF80D
:10BFB0000330052311F8014F0DF8034013F1FF334F
:10BFC000F8D203688DF80620D3F8A44007226B4608
:10BFD00040F60D41A04702B010BD13B513238DF8F4
:10BFE0000630026802ABD2F8A44023F8041D0322F5
:10BFF00040F20641A04702B010BDC0F804117047DE
:10C000000023C0F8043170473AB190F81D329342D2
:10C0100003DD9B1A80F81D3270470023FAE710B445
:10C02000D0F8F8300C4623B1204611465DF8044B99
:10C03000184718465DF8044B704710B4D0F8EC3040
:10C040000C4623B1204611465DF8044B18471846AC
:10C050005DF8044B704710B4D0F8F4300C4623B1AF
:10C06000204611465DF8044B184718465DF8044B0E
:10C070007047D0F8FC302BB1D0F80001003018BF69
:10C08000012070470320704710B54FF448710446F3
:10C090003CF05AFF204610BD2DE9F843424B0446C0
:10C0A0001D6819B12B6828469B6898473F4E404F42
:10C0B000DFF800812B682846DB689847002870D09D
:10C0C0002B6828465B699847D4F80831B3F5817F1F
:10C0D0005FFA80F908DBD4F804010023C4F80831C2
:10C0E00010B1314606F06AFBD4F808315A1C2344DB
:10C0F000C4F8082183F80C9194F80C31022B25D157
:10C10000052AD7DD94F8101194F80F3103EB0123C1
:10C1100004339A42CEDDD4F8043143B12368D2B25D
:10C12000D3F8C090414604F586732046C8470023E3
:10C13000D4F80811C4F808312368D3F8B4300139B1
:10C1400004F20D12C9B220469847B3E7042B1CD164
:10C15000032AAFDD94F80E3102339A42AADDD4F8F7
:10C16000043143B12368D2B2D3F8C090394604F504
:10C1700086732046C8470023D4F80811C4F8083154
:10C1800023680139D3F8BC30DAE7D4F8040100237E
:10C19000C4F8083100288DD01022494606F04EFB25
:10C1A00088E7BDE8F88300BF184307000642070090
:10C1B0002E4207001B420700F0B51546168852882C
:10C1C000AB88111F994287B004464FEA163609D052
:10C1D000012E00F21E271DD000F20D110432384648
:10C1E00044F098F86A88AB88043A9A422DD1E888DE
:10C1F000298883B2042BC1F30B011CD1244B18688E
:10C2000003681D6A012ED2B20CBF04F2262304F289
:10C21000151319E0B0F8200200F2222004F21111E7
:10C22000204444F077F86A88B4F820321344A4F824
:10C2300020323D46D6E7052B09D1164B1868036816
:10C24000D2B2DD6804F21513A84707B0F0BD062B83
:10C2500004D1104B186803681D69D3E700220392CC
:10C26000ADF8142001228DF80C200622ADF80E2026
:10C27000022203ABADF8102022680093ADF8120043
:10C28000D2F894500A2305222046A847DDE700BFD4
:10C2900030400700A8430700F0B5202589B00446C8
:10C2A0000E46174600212A46684644F031F93246C8
:10C2B00039460DF101008DF8006044F02BF8236839
:10C2C0002A46D3F8A46042F208016B462046B047E4
:10C2D00009B0F0BDF0B5202589B004460E461746DA
:10C2E00000212A46684644F013F9324639460DF1DA
:10C2F00001008DF8006044F00DF823682A46D3F859
:10C30000A46042F209016B462046B04709B0F0BD77
:10C310002DE9F047044600AF8A4691461D4694F841
:10C320001D2294F81C329A4204D3236820461B69CC
:10C330009847F4E705F1100303F4FC73ADEB030D2C
:10C3400002238DF800302B1DDBB22A46396AADF886
:10C3500003300DF10900ADF801A0ADF80550ADF8BE
:10C36000079043F0D7FFD4F8043105F10906E846F9
:10C370003BB123680B49D3F8C050F2B26B4620465C
:10C38000A84794F81D32013384F81D32064B186813
:10C39000036832469B69414698470020BD46BDE888
:10C3A000F08700BFE0410700184307002DE9F04384
:10C3B0000D46114683B00B3101F4FC7100AF044609
:10C3C000ADEB010D01203871A7F80550FA716846F0
:10C3D000796840F8041B1946161D43F09BFFD4F8FA
:10C3E0000431E8463BB123681649D3F8C090F2B255
:10C3F0006B462046C847144B1868036832469B6951
:10C40000414698474FF6FF73A4F80E324FF0FF33C2
:10C41000C4F8103206F0A0FB00F57A76B4F80E32BC
:10C42000AB4208D006F098FBB04204D22368204605
:10C430001B699847F2E7D4F810020C37BD46BDE8F7
:10C44000F08300BFF34107001843070007B502ABB4
:10C45000002203F8012D42F22D0101220248FFF7CC
:10C46000A5FF03B05DF804FB5472002007B502ABD2
:10C47000012203F8012D42F22D010348FFF796FF38
:10C4800003B05DF804FB00BF547200207FB50123A8
:10C490008DF800300B68CDF801308B88ADF8053091
:10C4A0000DF11701531E0F3213F8010F01F8010DA2
:10C4B0009342F9D16B46172240F611410248FFF72B
:10C4C00075FF07B05DF804FB5472002013B50446F5
:10C4D000684601F02BF9D4F8EC3063B1D4F8F430AD
:10C4E0004BB1D4F8F83033B1D4F8F0301BB101219E
:10C4F000684601F01EF96846012101F02CF96846F2
:10C50000012101F01FF96846012101F02DF92D21CB
:10C5100001A801F00CF99DF8040002B010BD2DE94E
:10C52000F0411D460368D3F8A48000230F46164649
:10C5300041F201011A460446C04770B9D4F81832D6
:10C540001A783A70B3F801203280DA782A70069AA5
:10C5500099881180DA88079B1A80BDE8F08113B5AD
:10C56000036869461B6A0446984750B9D4F81832E4
:10C57000D9345A1E053312F8011F04F801199A42E2
:10C58000F9D102B010BD0000F8B50368D3F8A4508B
:10C5900000230E46174642F202011A460446A847F7
:10C5A000054678B9D4F818321A8832809B783B70E7
:10C5B00084F81C32044B31881868036809399B6879
:10C5C00089B298472846F8BD30400700F0B589B0D9
:10C5D0006F460E461446002120220546384643F099
:10C5E00097FF711E04AB621E11F8010F03F8010DD5
:10C5F00012F8010F1874BB42F6D12A6842F21701F3
:10C60000D2F8A44028462022A04750B90E9B1033F0
:10C61000D5F81822125C03F8012D01301028F7D14B
:10C62000012009B0F0BD70B50368D3F8A460002301
:10C630000C461A4641F209010546B04728B9D5F81B
:10C6400018321A6822609B88A38070BD70B5036899
:10C65000D3F8A46000230C461A4642F2180105469E
:10C66000B04728B9D5F8182213682360536863606F
:10C6700070BD00002DE9F0411678052EB2B00546D8
:10C6800014461DD19F4B52791868B4F80310036803
:10C690005B6A98479C4BB4F803101868627903688A
:10C6A000C9B25B699847994B186803689B689847BB
:10C6B00018B101219648FFF781FB32B0BDE8F08147
:10C6C000082E64D18F4BB2F8031052791D68002AEE
:10C6D00058D02846FEF7E7FAC10734D505F1870898
:10C6E000404601F077FA404601F078FA28B332AFBD
:10C6F00005F1980207F8446D102312F8011BD95573
:10C70000013BFAD1B4F803108148009711230622A7
:10C71000FFF7FEFD09237F4AADF884300623F918A0
:10C7200012F8010F4870013BF9D1B4F803107848B2
:10C73000009708230622FFF7EBFD404601F052FA6E
:10C74000404601F053FA2B68B4F803109B6E802228
:10C750002846984795F8853023B12B682846D3F8AA
:10C760008030984795F88430002BA6D02A1DB4F865
:10C770000310674800920422FFF7CAFD002385F8E2
:10C7800084309AE72B6828469B6E984795E70E2ED3
:10C790000ED1B2F80330A0F80E325379C0F810323F
:10C7A00053780634043B80F81432C0F8184284E70A
:10C7B0000F2E09D19388A0F80E329378C0F810326A
:10C7C000002380F8143278E7132E12D193780734BF
:10C7D000D61C04EB83040436B4423FF46EAF2B68DE
:10C7E00036F8022CD3F8B83036F8041C284698479F
:10C7F000F1E73E2E7FF461AF9378013B092B3FF6C2
:10C800005CAF01A252F823F087C80200D1C8020031
:10C81000BBC60200BBC6020019C90200B3C90200B0
:10C82000BBC60200DFC90200F9CA020031C802001B
:10C83000E378002B7FF441AF324B94F820701868F6
:10C84000A279E379A18806680497E78B0397A78B01
:10C850000297678B04F10805CDE90057F669B047E8
:10C86000294B94F820701868A279E379A1880668AA
:10C870000497E78B0397A78B0297648BCDE900544D
:10C88000B468A04719E7E378002B7FF416AF1D4B7F
:10C89000277D1868A279E379A18806680497678ADA
:10C8A0000397278A0297E78904F10805CDE9005725
:10C8B000F669B047144B277D1868A279E379A188FF
:10C8C00006680497678A0397278A0297E489D5E761
:10C8D000237B1F2B3FF6F1AEE278012A7FF4EDAE09
:10C8E0000A4A2179106862790568E61896F90D60A0
:10C8F000029604F10D06CDE90036A31DAD6BA847E5
:10C90000DBE600BF30400700A843070030410700C6
:10C9100054720020277300208E4BB4F803101E6859
:10C92000336810AA1B6F30469847B4F8031030469E
:10C93000FEF7B9F9C2071DD5102200210DF18600BE
:10C9400043F0E6FD2379E278834942EA032232ABE1
:10C9500023F8442D1022981811F8014F4470013A21
:10C96000F9D12A6842F21A01D2F8A44012222846CC
:10C97000A047A2E63368B4F80310DB6F0BAA304679
:10C9800098472B68754AD3F8A83078B10BA9284688
:10C990009847C0B20028CFD12B680222D3F8A460F8
:10C9A00042F21B01E31C2846B04786E60DF1410127
:10C9B000EDE754F8030F6168228921AB03C31A80A5
:10C9C0000F23ADF88E3040F6FF73ADF890302B6832
:10C9D0000E22D3F8A44042F2200121ABC7E7E3784E
:10C9E000002B7FF46AAE0C238DF840300DF141022C
:10C9F000231D04F1440153F8040B42F8040B8B424D
:10CA0000F9D1231D05F14402443453F8041B42F8C4
:10CA1000041BA342F9D14F4B1C682046FEF732F9A4
:10CA2000052806463FF649AE0DF14008412306228F
:10CA30000146CDF800804A48FFF76AFC314620469F
:10CA4000FEF731F9236840F004029B6ED2B2314602
:10CA5000204605F1A407984739464148FFF7F6FDFF
:10CA600005F1AC013E48FFF7F1FD4122002121A86C
:10CA700043F04EFD3A4829AA012318F8031002F8A2
:10CA8000011DC1180133C97882F82010212BF4D17F
:10CA90000BAD11220021284643F03AFD0DF12D0483
:10CAA00003238DF82C3021AA4123394600942D48C8
:10CAB00000F034FF2A462B4607A912F8010F03F8AD
:10CAC000010D8B42F9D122461C4603CCAC421060CA
:10CAD0005160234602F10802F6D131460095112338
